{
  "_format": "hh-sol-artifact-1",
  "contractName": "MyEpicNFT",
  "sourceName": "contracts/MyEpicNFTRandom.sol",
  "abi": [
    {
      "inputs": [],
      "stateMutability": "nonpayable",
      "type": "constructor"
    },
    {
      "anonymous": false,
      "inputs": [
        {
          "indexed": true,
          "internalType": "address",
          "name": "owner",
          "type": "address"
        },
        {
          "indexed": true,
          "internalType": "address",
          "name": "approved",
          "type": "address"
        },
        {
          "indexed": true,
          "internalType": "uint256",
          "name": "tokenId",
          "type": "uint256"
        }
      ],
      "name": "Approval",
      "type": "event"
    },
    {
      "anonymous": false,
      "inputs": [
        {
          "indexed": true,
          "internalType": "address",
          "name": "owner",
          "type": "address"
        },
        {
          "indexed": true,
          "internalType": "address",
          "name": "operator",
          "type": "address"
        },
        {
          "indexed": false,
          "internalType": "bool",
          "name": "approved",
          "type": "bool"
        }
      ],
      "name": "ApprovalForAll",
      "type": "event"
    },
    {
      "anonymous": false,
      "inputs": [
        {
          "indexed": false,
          "internalType": "uint256",
          "name": "_fromTokenId",
          "type": "uint256"
        },
        {
          "indexed": false,
          "internalType": "uint256",
          "name": "_toTokenId",
          "type": "uint256"
        }
      ],
      "name": "BatchMetadataUpdate",
      "type": "event"
    },
    {
      "anonymous": false,
      "inputs": [
        {
          "indexed": false,
          "internalType": "uint256",
          "name": "_tokenId",
          "type": "uint256"
        }
      ],
      "name": "MetadataUpdate",
      "type": "event"
    },
    {
      "anonymous": false,
      "inputs": [
        {
          "indexed": false,
          "internalType": "address",
          "name": "sender",
          "type": "address"
        },
        {
          "indexed": false,
          "internalType": "uint256",
          "name": "tokenId",
          "type": "uint256"
        }
      ],
      "name": "NewEpicNFTMinted",
      "type": "event"
    },
    {
      "anonymous": false,
      "inputs": [
        {
          "indexed": true,
          "internalType": "address",
          "name": "from",
          "type": "address"
        },
        {
          "indexed": true,
          "internalType": "address",
          "name": "to",
          "type": "address"
        },
        {
          "indexed": true,
          "internalType": "uint256",
          "name": "tokenId",
          "type": "uint256"
        }
      ],
      "name": "Transfer",
      "type": "event"
    },
    {
      "inputs": [
        {
          "internalType": "address",
          "name": "to",
          "type": "address"
        },
        {
          "internalType": "uint256",
          "name": "tokenId",
          "type": "uint256"
        }
      ],
      "name": "approve",
      "outputs": [],
      "stateMutability": "nonpayable",
      "type": "function"
    },
    {
      "inputs": [
        {
          "internalType": "address",
          "name": "owner",
          "type": "address"
        }
      ],
      "name": "balanceOf",
      "outputs": [
        {
          "internalType": "uint256",
          "name": "",
          "type": "uint256"
        }
      ],
      "stateMutability": "view",
      "type": "function"
    },
    {
      "inputs": [
        {
          "internalType": "uint256",
          "name": "tokenId",
          "type": "uint256"
        }
      ],
      "name": "getApproved",
      "outputs": [
        {
          "internalType": "address",
          "name": "",
          "type": "address"
        }
      ],
      "stateMutability": "view",
      "type": "function"
    },
    {
      "inputs": [
        {
          "internalType": "address",
          "name": "owner",
          "type": "address"
        },
        {
          "internalType": "address",
          "name": "operator",
          "type": "address"
        }
      ],
      "name": "isApprovedForAll",
      "outputs": [
        {
          "internalType": "bool",
          "name": "",
          "type": "bool"
        }
      ],
      "stateMutability": "view",
      "type": "function"
    },
    {
      "inputs": [],
      "name": "makeAnEpicNFT",
      "outputs": [],
      "stateMutability": "nonpayable",
      "type": "function"
    },
    {
      "inputs": [],
      "name": "name",
      "outputs": [
        {
          "internalType": "string",
          "name": "",
          "type": "string"
        }
      ],
      "stateMutability": "view",
      "type": "function"
    },
    {
      "inputs": [
        {
          "internalType": "uint256",
          "name": "tokenId",
          "type": "uint256"
        }
      ],
      "name": "ownerOf",
      "outputs": [
        {
          "internalType": "address",
          "name": "",
          "type": "address"
        }
      ],
      "stateMutability": "view",
      "type": "function"
    },
    {
      "inputs": [
        {
          "internalType": "uint256",
          "name": "tokenId",
          "type": "uint256"
        }
      ],
      "name": "pickRandomColor",
      "outputs": [
        {
          "internalType": "string",
          "name": "",
          "type": "string"
        }
      ],
      "stateMutability": "view",
      "type": "function"
    },
    {
      "inputs": [
        {
          "internalType": "uint256",
          "name": "tokenId",
          "type": "uint256"
        }
      ],
      "name": "pickRandomFirstWord",
      "outputs": [
        {
          "internalType": "string",
          "name": "",
          "type": "string"
        }
      ],
      "stateMutability": "view",
      "type": "function"
    },
    {
      "inputs": [
        {
          "internalType": "uint256",
          "name": "tokenId",
          "type": "uint256"
        }
      ],
      "name": "pickRandomSecondWord",
      "outputs": [
        {
          "internalType": "string",
          "name": "",
          "type": "string"
        }
      ],
      "stateMutability": "view",
      "type": "function"
    },
    {
      "inputs": [
        {
          "internalType": "uint256",
          "name": "tokenId",
          "type": "uint256"
        }
      ],
      "name": "pickRandomThirdWord",
      "outputs": [
        {
          "internalType": "string",
          "name": "",
          "type": "string"
        }
      ],
      "stateMutability": "view",
      "type": "function"
    },
    {
      "inputs": [
        {
          "internalType": "address",
          "name": "from",
          "type": "address"
        },
        {
          "internalType": "address",
          "name": "to",
          "type": "address"
        },
        {
          "internalType": "uint256",
          "name": "tokenId",
          "type": "uint256"
        }
      ],
      "name": "safeTransferFrom",
      "outputs": [],
      "stateMutability": "nonpayable",
      "type": "function"
    },
    {
      "inputs": [
        {
          "internalType": "address",
          "name": "from",
          "type": "address"
        },
        {
          "internalType": "address",
          "name": "to",
          "type": "address"
        },
        {
          "internalType": "uint256",
          "name": "tokenId",
          "type": "uint256"
        },
        {
          "internalType": "bytes",
          "name": "data",
          "type": "bytes"
        }
      ],
      "name": "safeTransferFrom",
      "outputs": [],
      "stateMutability": "nonpayable",
      "type": "function"
    },
    {
      "inputs": [
        {
          "internalType": "address",
          "name": "operator",
          "type": "address"
        },
        {
          "internalType": "bool",
          "name": "approved",
          "type": "bool"
        }
      ],
      "name": "setApprovalForAll",
      "outputs": [],
      "stateMutability": "nonpayable",
      "type": "function"
    },
    {
      "inputs": [
        {
          "internalType": "bytes4",
          "name": "interfaceId",
          "type": "bytes4"
        }
      ],
      "name": "supportsInterface",
      "outputs": [
        {
          "internalType": "bool",
          "name": "",
          "type": "bool"
        }
      ],
      "stateMutability": "view",
      "type": "function"
    },
    {
      "inputs": [],
      "name": "symbol",
      "outputs": [
        {
          "internalType": "string",
          "name": "",
          "type": "string"
        }
      ],
      "stateMutability": "view",
      "type": "function"
    },
    {
      "inputs": [
        {
          "internalType": "uint256",
          "name": "tokenId",
          "type": "uint256"
        }
      ],
      "name": "tokenURI",
      "outputs": [
        {
          "internalType": "string",
          "name": "",
          "type": "string"
        }
      ],
      "stateMutability": "view",
      "type": "function"
    },
    {
      "inputs": [
        {
          "internalType": "address",
          "name": "from",
          "type": "address"
        },
        {
          "internalType": "address",
          "name": "to",
          "type": "address"
        },
        {
          "internalType": "uint256",
          "name": "tokenId",
          "type": "uint256"
        }
      ],
      "name": "transferFrom",
      "outputs": [],
      "stateMutability": "nonpayable",
      "type": "function"
    }
  ],
  "bytecode": "0x608060405260405180610100016040528060d3815260200162004ebf60d39139600890816200002f91906200120b565b5060405180608001604052806056815260200162004f9260569139600990816200005a91906200120b565b50604051806101e001604052806040518060400160405280600981526020017f46616e746173746963000000000000000000000000000000000000000000000081525081526020016040518060400160405280600481526020017f457069630000000000000000000000000000000000000000000000000000000081525081526020016040518060400160405280600881526020017f5465727269626c6500000000000000000000000000000000000000000000000081525081526020016040518060400160405280600581526020017f4372617a7900000000000000000000000000000000000000000000000000000081525081526020016040518060400160405280600481526020017f57696c640000000000000000000000000000000000000000000000000000000081525081526020016040518060400160405280600a81526020017f54657272696679696e670000000000000000000000000000000000000000000081525081526020016040518060400160405280600681526020017f53706f6f6b79000000000000000000000000000000000000000000000000000081525081526020016040518060400160405280600781526020017f416d617a696e670000000000000000000000000000000000000000000000000081525081526020016040518060400160405280600a81526020017f496e6372656469626c650000000000000000000000000000000000000000000081525081526020016040518060400160405280600c81526020017f556e62656c69657661626c65000000000000000000000000000000000000000081525081526020016040518060400160405280600b81526020017f53706563746163756c617200000000000000000000000000000000000000000081525081526020016040518060400160405280600a81526020017f4d7973746572696f75730000000000000000000000000000000000000000000081525081526020016040518060400160405280600c81526020017f42726561746874616b696e67000000000000000000000000000000000000000081525081526020016040518060400160405280600981526020017f546872696c6c696e67000000000000000000000000000000000000000000000081525081526020016040518060400160405280600c81526020017f4a61772d64726f7070696e670000000000000000000000000000000000000000815250815250600a90600f620003ec92919062000e44565b50604051806101e001604052806040518060400160405280600681526020017f427572676572000000000000000000000000000000000000000000000000000081525081526020016040518060400160405280600981526020017f49636520437265616d000000000000000000000000000000000000000000000081525081526020016040518060400160405280600581526020017f537573686900000000000000000000000000000000000000000000000000000081525081526020016040518060400160405280600581526020017f506173746100000000000000000000000000000000000000000000000000000081525081526020016040518060400160405280600581526020017f537465616b00000000000000000000000000000000000000000000000000000081525081526020016040518060400160405280600481526020017f5461636f0000000000000000000000000000000000000000000000000000000081525081526020016040518060400160405280600881526020017f536d6f6f7468696500000000000000000000000000000000000000000000000081525081526020016040518060400160405280600981526020017f44756d706c696e6773000000000000000000000000000000000000000000000081525081526020016040518060400160405280600c81526020017f436865657365627572676572000000000000000000000000000000000000000081525081526020016040518060400160405280600781526020017f4e6f6f646c65730000000000000000000000000000000000000000000000000081525081526020016040518060400160405280600781526020017f4275727269746f0000000000000000000000000000000000000000000000000081525081526020016040518060400160405280600581526020017f52616d656e00000000000000000000000000000000000000000000000000000081525081526020016040518060400160405280600581526020017f57696e677300000000000000000000000000000000000000000000000000000081525081526020016040518060400160405280600481526020017f577261700000000000000000000000000000000000000000000000000000000081525081526020016040518060400160405280600c81526020017f4361657361722053616c61640000000000000000000000000000000000000000815250815250600b90600f6200077e92919062000e44565b50604051806101e001604052806040518060400160405280600581526020017f4c7566667900000000000000000000000000000000000000000000000000000081525081526020016040518060400160405280600681526020017f49636869676f000000000000000000000000000000000000000000000000000081525081526020016040518060400160405280600681526020017f566567657461000000000000000000000000000000000000000000000000000081525081526020016040518060400160405280600681526020017f497461636869000000000000000000000000000000000000000000000000000081525081526020016040518060400160405280600481526020017f4e616d690000000000000000000000000000000000000000000000000000000081525081526020016040518060400160405280600581526020017f4e6174737500000000000000000000000000000000000000000000000000000081525081526020016040518060400160405280600481526020017f5a6f726f0000000000000000000000000000000000000000000000000000000081525081526020016040518060400160405280600681526020017f4b7572616d61000000000000000000000000000000000000000000000000000081525081526020016040518060400160405280600881526020017f4e6172616e63696100000000000000000000000000000000000000000000000081525081526020016040518060400160405280600681526020017f4b6973616d65000000000000000000000000000000000000000000000000000081525081526020016040518060400160405280600381526020017f476f6e000000000000000000000000000000000000000000000000000000000081525081526020016040518060400160405280600781526020017f5473756e6164650000000000000000000000000000000000000000000000000081525081526020016040518060400160405280600781526020017f4a6972616979610000000000000000000000000000000000000000000000000081525081526020016040518060400160405280600981526020017f486173686972616d61000000000000000000000000000000000000000000000081525081526020016040518060400160405280600681526020017f48696e6174610000000000000000000000000000000000000000000000000000815250815250600c90600f62000b1092919062000e44565b506040518060c001604052806040518060400160405280600381526020017f726564000000000000000000000000000000000000000000000000000000000081525081526020016040518060400160405280600781526020017f233038433241380000000000000000000000000000000000000000000000000081525081526020016040518060400160405280600581526020017f626c61636b00000000000000000000000000000000000000000000000000000081525081526020016040518060400160405280600681526020017f79656c6c6f77000000000000000000000000000000000000000000000000000081525081526020016040518060400160405280600481526020017f626c75650000000000000000000000000000000000000000000000000000000081525081526020016040518060400160405280600581526020017f677265656e000000000000000000000000000000000000000000000000000000815250815250600d90600662000c8e92919062000ea4565b5034801562000c9c57600080fd5b506040518060400160405280600981526020017f5371756172654e465400000000000000000000000000000000000000000000008152506040518060400160405280600681526020017f5351554152450000000000000000000000000000000000000000000000000000815250816000908162000d1a91906200120b565b50806001908162000d2c91906200120b565b50505062000d7a6040518060400160405280601e81526020017f54686973206973206d79204e465420636f6e74726163742e20576f616821000081525062000d8060201b620010641760201c565b620013a5565b62000e208160405160240162000d97919062001381565b6040516020818303038152906040527f41304fac000000000000000000000000000000000000000000000000000000007bffffffffffffffffffffffffffffffffffffffffffffffffffffffff19166020820180517bffffffffffffffffffffffffffffffffffffffffffffffffffffffff838183161783525050505062000e2360201b60201c565b50565b60006a636f6e736f6c652e6c6f679050600080835160208501845afa505050565b82805482825590600052602060002090810192821562000e91579160200282015b8281111562000e9057825182908162000e7f91906200120b565b509160200191906001019062000e65565b5b50905062000ea0919062000f04565b5090565b82805482825590600052602060002090810192821562000ef1579160200282015b8281111562000ef057825182908162000edf91906200120b565b509160200191906001019062000ec5565b5b50905062000f00919062000f04565b5090565b5b8082111562000f28576000818162000f1e919062000f2c565b5060010162000f05565b5090565b50805462000f3a9062000ffa565b6000825580601f1062000f4e575062000f6f565b601f01602090049060005260206000209081019062000f6e919062000f72565b5b50565b5b8082111562000f8d57600081600090555060010162000f73565b5090565b600081519050919050565b7f4e487b7100000000000000000000000000000000000000000000000000000000600052604160045260246000fd5b7f4e487b7100000000000000000000000000000000000000000000000000000000600052602260045260246000fd5b600060028204905060018216806200101357607f821691505b60208210810362001029576200102862000fcb565b5b50919050565b60008190508160005260206000209050919050565b60006020601f8301049050919050565b600082821b905092915050565b600060088302620010937fffffffffffffffffffffffffffffffffffffffffffffffffffffffffffffffff8262001054565b6200109f868362001054565b95508019841693508086168417925050509392505050565b6000819050919050565b6000819050919050565b6000620010ec620010e6620010e084620010b7565b620010c1565b620010b7565b9050919050565b6000819050919050565b6200110883620010cb565b620011206200111782620010f3565b84845462001061565b825550505050565b600090565b6200113762001128565b62001144818484620010fd565b505050565b5b818110156200116c57620011606000826200112d565b6001810190506200114a565b5050565b601f821115620011bb5762001185816200102f565b620011908462001044565b81016020851015620011a0578190505b620011b8620011af8562001044565b83018262001149565b50505b505050565b600082821c905092915050565b6000620011e060001984600802620011c0565b1980831691505092915050565b6000620011fb8383620011cd565b9150826002028217905092915050565b620012168262000f91565b67ffffffffffffffff81111562001232576200123162000f9c565b5b6200123e825462000ffa565b6200124b82828562001170565b600060209050601f8311600181146200128357600084156200126e578287015190505b6200127a8582620011ed565b865550620012ea565b601f19841662001293866200102f565b60005b82811015620012bd5784890151825560018201915060208501945060208101905062001296565b86831015620012dd5784890151620012d9601f891682620011cd565b8355505b6001600288020188555050505b505050505050565b600082825260208201905092915050565b60005b838110156200132357808201518184015260208101905062001306565b60008484015250505050565b6000601f19601f8301169050919050565b60006200134d8262000f91565b620013598185620012f2565b93506200136b81856020860162001303565b62001376816200132f565b840191505092915050565b600060208201905081810360008301526200139d818462001340565b905092915050565b613b0a80620013b56000396000f3fe608060405234801561001057600080fd5b50600436106101165760003560e01c806370a08231116100a2578063b88d4fde11610071578063b88d4fde14610317578063c575757a14610333578063c87b56dd14610363578063de9d132f14610393578063e985e9c51461039d57610116565b806370a082311461027d57806395d89b41146102ad578063a22cb465146102cb578063b187301f146102e757610116565b806323b872dd116100e957806323b872dd146101b55780632de38d68146101d157806342842e0e14610201578063514dc8c61461021d5780636352211e1461024d57610116565b806301ffc9a71461011b57806306fdde031461014b578063081812fc14610169578063095ea7b314610199575b600080fd5b610135600480360381019061013091906123d3565b6103cd565b604051610142919061241b565b60405180910390f35b61015361042e565b60405161016091906124c6565b60405180910390f35b610183600480360381019061017e919061251e565b6104c0565b604051610190919061258c565b60405180910390f35b6101b360048036038101906101ae91906125d3565b610506565b005b6101cf60048036038101906101ca9190612613565b61061d565b005b6101eb60048036038101906101e6919061251e565b61067d565b6040516101f891906124c6565b60405180910390f35b61021b60048036038101906102169190612613565b610775565b005b6102376004803603810190610232919061251e565b610795565b60405161024491906124c6565b60405180910390f35b6102676004803603810190610262919061251e565b61088d565b604051610274919061258c565b60405180910390f35b61029760048036038101906102929190612666565b610913565b6040516102a491906126a2565b60405180910390f35b6102b56109ca565b6040516102c291906124c6565b60405180910390f35b6102e560048036038101906102e091906126e9565b610a5c565b005b61030160048036038101906102fc919061251e565b610a72565b60405161030e91906124c6565b60405180910390f35b610331600480360381019061032c919061285e565b610b6a565b005b61034d6004803603810190610348919061251e565b610bcc565b60405161035a91906124c6565b60405180910390f35b61037d6004803603810190610378919061251e565b610cc4565b60405161038a91906124c6565b60405180910390f35b61039b610dd6565b005b6103b760048036038101906103b291906128e1565b610fd0565b6040516103c4919061241b565b60405180910390f35b6000634906490660e01b7bffffffffffffffffffffffffffffffffffffffffffffffffffffffff1916827bffffffffffffffffffffffffffffffffffffffffffffffffffffffff191614806104275750610426826110fd565b5b9050919050565b60606000805461043d90612950565b80601f016020809104026020016040519081016040528092919081815260200182805461046990612950565b80156104b65780601f1061048b576101008083540402835291602001916104b6565b820191906000526020600020905b81548152906001019060200180831161049957829003601f168201915b5050505050905090565b60006104cb826111df565b6004600083815260200190815260200160002060009054906101000a900473ffffffffffffffffffffffffffffffffffffffff169050919050565b60006105118261088d565b90508073ffffffffffffffffffffffffffffffffffffffff168373ffffffffffffffffffffffffffffffffffffffff1603610581576040517f08c379a0000000000000000000000000000000000000000000000000000000008152600401610578906129f3565b60405180910390fd5b8073ffffffffffffffffffffffffffffffffffffffff166105a061122a565b73ffffffffffffffffffffffffffffffffffffffff1614806105cf57506105ce816105c961122a565b610fd0565b5b61060e576040517f08c379a000000000000000000000000000000000000000000000000000000000815260040161060590612a85565b60405180910390fd5b6106188383611232565b505050565b61062e61062861122a565b826112eb565b61066d576040517f08c379a000000000000000000000000000000000000000000000000000000000815260040161066490612b17565b60405180910390fd5b610678838383611380565b505050565b606060006106b161068d84611679565b60405160200161069d9190612bbf565b604051602081830303815290604052611747565b9050600a80549050816106c49190612c10565b9050600a81815481106106da576106d9612c41565b5b9060005260206000200180546106ef90612950565b80601f016020809104026020016040519081016040528092919081815260200182805461071b90612950565b80156107685780601f1061073d57610100808354040283529160200191610768565b820191906000526020600020905b81548152906001019060200180831161074b57829003601f168201915b5050505050915050919050565b61079083838360405180602001604052806000815250610b6a565b505050565b606060006107c96107a584611679565b6040516020016107b59190612cbc565b604051602081830303815290604052611747565b9050600d80549050816107dc9190612c10565b9050600d81815481106107f2576107f1612c41565b5b90600052602060002001805461080790612950565b80601f016020809104026020016040519081016040528092919081815260200182805461083390612950565b80156108805780601f1061085557610100808354040283529160200191610880565b820191906000526020600020905b81548152906001019060200180831161086357829003601f168201915b5050505050915050919050565b6000806108998361177a565b9050600073ffffffffffffffffffffffffffffffffffffffff168173ffffffffffffffffffffffffffffffffffffffff160361090a576040517f08c379a000000000000000000000000000000000000000000000000000000000815260040161090190612d2a565b60405180910390fd5b80915050919050565b60008073ffffffffffffffffffffffffffffffffffffffff168273ffffffffffffffffffffffffffffffffffffffff1603610983576040517f08c379a000000000000000000000000000000000000000000000000000000000815260040161097a90612dbc565b60405180910390fd5b600360008373ffffffffffffffffffffffffffffffffffffffff1673ffffffffffffffffffffffffffffffffffffffff168152602001908152602001600020549050919050565b6060600180546109d990612950565b80601f0160208091040260200160405190810160405280929190818152602001828054610a0590612950565b8015610a525780601f10610a2757610100808354040283529160200191610a52565b820191906000526020600020905b815481529060010190602001808311610a3557829003601f168201915b5050505050905090565b610a6e610a6761122a565b83836117b7565b5050565b60606000610aa6610a8284611679565b604051602001610a929190612e28565b604051602081830303815290604052611747565b9050600b8054905081610ab99190612c10565b9050600b8181548110610acf57610ace612c41565b5b906000526020600020018054610ae490612950565b80601f0160208091040260200160405190810160405280929190818152602001828054610b1090612950565b8015610b5d5780601f10610b3257610100808354040283529160200191610b5d565b820191906000526020600020905b815481529060010190602001808311610b4057829003601f168201915b5050505050915050919050565b610b7b610b7561122a565b836112eb565b610bba576040517f08c379a0000000000000000000000000000000000000000000000000000000008152600401610bb190612b17565b60405180910390fd5b610bc684848484611923565b50505050565b60606000610c00610bdc84611679565b604051602001610bec9190612e96565b604051602081830303815290604052611747565b9050600c8054905081610c139190612c10565b9050600c8181548110610c2957610c28612c41565b5b906000526020600020018054610c3e90612950565b80601f0160208091040260200160405190810160405280929190818152602001828054610c6a90612950565b8015610cb75780601f10610c8c57610100808354040283529160200191610cb7565b820191906000526020600020905b815481529060010190602001808311610c9a57829003601f168201915b5050505050915050919050565b6060610ccf826111df565b6000600660008481526020019081526020016000208054610cef90612950565b80601f0160208091040260200160405190810160405280929190818152602001828054610d1b90612950565b8015610d685780601f10610d3d57610100808354040283529160200191610d68565b820191906000526020600020905b815481529060010190602001808311610d4b57829003601f168201915b505050505090506000610d7961197f565b90506000815103610d8e578192505050610dd1565b600082511115610dc3578082604051602001610dab929190612eb8565b60405160208183030381529060405292505050610dd1565b610dcc84611996565b925050505b919050565b6000610de260076119fe565b90506000610def8261067d565b90506000610dfc83610a72565b90506000610e0984610bcc565b90506000838383604051602001610e2293929190612edc565b60405160208183030381529060405290506000610e3e86610795565b90506000600882600985604051602001610e5b9493929190612ff1565b60405160208183030381529060405290506000610ea084610e7b84611a0c565b604051602001610e8c929190613190565b604051602081830303815290604052611a0c565b9050600081604051602001610eb59190613221565b6040516020818303038152906040529050610f046040518060400160405280601581526020017f0a2d2d2d2d2d2d2d2d2d2d2d2d2d2d2d2d2d2d2d2d0000000000000000000000815250611064565b610f0d81611064565b610f4b6040518060400160405280601581526020017f2d2d2d2d2d2d2d2d2d2d2d2d2d2d2d2d2d2d2d2d0a0000000000000000000000815250611064565b610f55338a611ba3565b610f5f8982611bc1565b610f696007611c65565b610f8c604051806060016040528060258152602001613a70602591398a33611c7b565b7febb98688741ffa4c7589bf325de30cf7becb63de567842e1ccdb6cb949fdc82c338a604051610fbd929190613243565b60405180910390a1505050505050505050565b6000600560008473ffffffffffffffffffffffffffffffffffffffff1673ffffffffffffffffffffffffffffffffffffffff16815260200190815260200160002060008373ffffffffffffffffffffffffffffffffffffffff1673ffffffffffffffffffffffffffffffffffffffff16815260200190815260200160002060009054906101000a900460ff16905092915050565b6110fa8160405160240161107891906124c6565b6040516020818303038152906040527f41304fac000000000000000000000000000000000000000000000000000000007bffffffffffffffffffffffffffffffffffffffffffffffffffffffff19166020820180517bffffffffffffffffffffffffffffffffffffffffffffffffffffffff8381831617835250505050611d1a565b50565b60007f80ac58cd000000000000000000000000000000000000000000000000000000007bffffffffffffffffffffffffffffffffffffffffffffffffffffffff1916827bffffffffffffffffffffffffffffffffffffffffffffffffffffffff191614806111c857507f5b5e139f000000000000000000000000000000000000000000000000000000007bffffffffffffffffffffffffffffffffffffffffffffffffffffffff1916827bffffffffffffffffffffffffffffffffffffffffffffffffffffffff1916145b806111d857506111d782611d3b565b5b9050919050565b6111e881611da5565b611227576040517f08c379a000000000000000000000000000000000000000000000000000000000815260040161121e90612d2a565b60405180910390fd5b50565b600033905090565b816004600083815260200190815260200160002060006101000a81548173ffffffffffffffffffffffffffffffffffffffff021916908373ffffffffffffffffffffffffffffffffffffffff160217905550808273ffffffffffffffffffffffffffffffffffffffff166112a58361088d565b73ffffffffffffffffffffffffffffffffffffffff167f8c5be1e5ebec7d5bd14f71427d1e84f3dd0314c0f7b2291e5b200ac8c7c3b92560405160405180910390a45050565b6000806112f78361088d565b90508073ffffffffffffffffffffffffffffffffffffffff168473ffffffffffffffffffffffffffffffffffffffff16148061133957506113388185610fd0565b5b8061137757508373ffffffffffffffffffffffffffffffffffffffff1661135f846104c0565b73ffffffffffffffffffffffffffffffffffffffff16145b91505092915050565b8273ffffffffffffffffffffffffffffffffffffffff166113a08261088d565b73ffffffffffffffffffffffffffffffffffffffff16146113f6576040517f08c379a00000000000000000000000000000000000000000000000000000000081526004016113ed906132de565b60405180910390fd5b600073ffffffffffffffffffffffffffffffffffffffff168273ffffffffffffffffffffffffffffffffffffffff1603611465576040517f08c379a000000000000000000000000000000000000000000000000000000000815260040161145c90613370565b60405180910390fd5b6114728383836001611de6565b8273ffffffffffffffffffffffffffffffffffffffff166114928261088d565b73ffffffffffffffffffffffffffffffffffffffff16146114e8576040517f08c379a00000000000000000000000000000000000000000000000000000000081526004016114df906132de565b60405180910390fd5b6004600082815260200190815260200160002060006101000a81549073ffffffffffffffffffffffffffffffffffffffff02191690556001600360008573ffffffffffffffffffffffffffffffffffffffff1673ffffffffffffffffffffffffffffffffffffffff168152602001908152602001600020600082825403925050819055506001600360008473ffffffffffffffffffffffffffffffffffffffff1673ffffffffffffffffffffffffffffffffffffffff16815260200190815260200160002060008282540192505081905550816002600083815260200190815260200160002060006101000a81548173ffffffffffffffffffffffffffffffffffffffff021916908373ffffffffffffffffffffffffffffffffffffffff160217905550808273ffffffffffffffffffffffffffffffffffffffff168473ffffffffffffffffffffffffffffffffffffffff167fddf252ad1be2c89b69c2b068fc378daa952ba7f163c4a11628f55a4df523b3ef60405160405180910390a46116748383836001611dec565b505050565b60606000600161168884611df2565b01905060008167ffffffffffffffff8111156116a7576116a6612733565b5b6040519080825280601f01601f1916602001820160405280156116d95781602001600182028036833780820191505090505b509050600082602001820190505b60011561173c578080600190039150507f3031323334353637383961626364656600000000000000000000000000000000600a86061a8153600a85816117305761172f612be1565b5b049450600085036116e7575b819350505050919050565b60008160405160200161175a9190613390565b6040516020818303038152906040528051906020012060001c9050919050565b60006002600083815260200190815260200160002060009054906101000a900473ffffffffffffffffffffffffffffffffffffffff169050919050565b8173ffffffffffffffffffffffffffffffffffffffff168373ffffffffffffffffffffffffffffffffffffffff1603611825576040517f08c379a000000000000000000000000000000000000000000000000000000000815260040161181c906133f3565b60405180910390fd5b80600560008573ffffffffffffffffffffffffffffffffffffffff1673ffffffffffffffffffffffffffffffffffffffff16815260200190815260200160002060008473ffffffffffffffffffffffffffffffffffffffff1673ffffffffffffffffffffffffffffffffffffffff16815260200190815260200160002060006101000a81548160ff0219169083151502179055508173ffffffffffffffffffffffffffffffffffffffff168373ffffffffffffffffffffffffffffffffffffffff167f17307eab39ab6107e8899845ad3d59bd9653f200f220920489ca2b5937696c3183604051611916919061241b565b60405180910390a3505050565b61192e848484611380565b61193a84848484611f45565b611979576040517f08c379a000000000000000000000000000000000000000000000000000000000815260040161197090613485565b60405180910390fd5b50505050565b606060405180602001604052806000815250905090565b60606119a1826111df565b60006119ab61197f565b905060008151116119cb57604051806020016040528060008152506119f6565b806119d584611679565b6040516020016119e6929190612eb8565b6040516020818303038152906040525b915050919050565b600081600001549050919050565b606060008251905060008103611a345760405180602001604052806000815250915050611b9e565b60006003600283611a4591906134d4565b611a4f9190613508565b6004611a5b9190613539565b90506000602082611a6c91906134d4565b67ffffffffffffffff811115611a8557611a84612733565b5b6040519080825280601f01601f191660200182016040528015611ab75781602001600182028036833780820191505090505b5090506000604051806060016040528060408152602001613a95604091399050600181016020830160005b86811015611b5b5760038101905062ffffff818a015116603f8160121c168401518060081b905060ff603f83600c1c1686015116810190508060081b905060ff603f8360061c1686015116810190508060081b905060ff603f831686015116810190508060e01b90508084526004840193505050611ae2565b506003860660018114611b755760028114611b8557611b90565b613d3d60f01b6002830352611b90565b603d60f81b60018303525b508484525050819450505050505b919050565b611bbd8282604051806020016040528060008152506120cc565b5050565b611bca82611da5565b611c09576040517f08c379a0000000000000000000000000000000000000000000000000000000008152600401611c00906135ed565b60405180910390fd5b80600660008481526020019081526020016000209081611c2991906137a4565b507ff8e1a15aba9398e019f0b49df1a4fde98ee17ae345cb5f6b5e2c27f5033e8ce782604051611c5991906126a2565b60405180910390a15050565b6001816000016000828254019250508190555050565b611d15838383604051602401611c9393929190613876565b6040516020818303038152906040527f1c7ec448000000000000000000000000000000000000000000000000000000007bffffffffffffffffffffffffffffffffffffffffffffffffffffffff19166020820180517bffffffffffffffffffffffffffffffffffffffffffffffffffffffff8381831617835250505050611d1a565b505050565b60006a636f6e736f6c652e6c6f679050600080835160208501845afa505050565b60007f01ffc9a7000000000000000000000000000000000000000000000000000000007bffffffffffffffffffffffffffffffffffffffffffffffffffffffff1916827bffffffffffffffffffffffffffffffffffffffffffffffffffffffff1916149050919050565b60008073ffffffffffffffffffffffffffffffffffffffff16611dc78361177a565b73ffffffffffffffffffffffffffffffffffffffff1614159050919050565b50505050565b50505050565b600080600090507a184f03e93ff9f4daa797ed6e38ed64bf6a1f0100000000000000008310611e50577a184f03e93ff9f4daa797ed6e38ed64bf6a1f0100000000000000008381611e4657611e45612be1565b5b0492506040810190505b6d04ee2d6d415b85acef81000000008310611e8d576d04ee2d6d415b85acef81000000008381611e8357611e82612be1565b5b0492506020810190505b662386f26fc100008310611ebc57662386f26fc100008381611eb257611eb1612be1565b5b0492506010810190505b6305f5e1008310611ee5576305f5e1008381611edb57611eda612be1565b5b0492506008810190505b6127108310611f0a576127108381611f0057611eff612be1565b5b0492506004810190505b60648310611f2d5760648381611f2357611f22612be1565b5b0492506002810190505b600a8310611f3c576001810190505b80915050919050565b6000611f668473ffffffffffffffffffffffffffffffffffffffff16612127565b156120bf578373ffffffffffffffffffffffffffffffffffffffff1663150b7a02611f8f61122a565b8786866040518563ffffffff1660e01b8152600401611fb19493929190613909565b6020604051808303816000875af1925050508015611fed57506040513d601f19601f82011682018060405250810190611fea919061396a565b60015b61206f573d806000811461201d576040519150601f19603f3d011682016040523d82523d6000602084013e612022565b606091505b506000815103612067576040517f08c379a000000000000000000000000000000000000000000000000000000000815260040161205e90613485565b60405180910390fd5b805181602001fd5b63150b7a0260e01b7bffffffffffffffffffffffffffffffffffffffffffffffffffffffff1916817bffffffffffffffffffffffffffffffffffffffffffffffffffffffff1916149150506120c4565b600190505b949350505050565b6120d6838361214a565b6120e36000848484611f45565b612122576040517f08c379a000000000000000000000000000000000000000000000000000000000815260040161211990613485565b60405180910390fd5b505050565b6000808273ffffffffffffffffffffffffffffffffffffffff163b119050919050565b600073ffffffffffffffffffffffffffffffffffffffff168273ffffffffffffffffffffffffffffffffffffffff16036121b9576040517f08c379a00000000000000000000000000000000000000000000000000000000081526004016121b0906139e3565b60405180910390fd5b6121c281611da5565b15612202576040517f08c379a00000000000000000000000000000000000000000000000000000000081526004016121f990613a4f565b60405180910390fd5b612210600083836001611de6565b61221981611da5565b15612259576040517f08c379a000000000000000000000000000000000000000000000000000000000815260040161225090613a4f565b60405180910390fd5b6001600360008473ffffffffffffffffffffffffffffffffffffffff1673ffffffffffffffffffffffffffffffffffffffff16815260200190815260200160002060008282540192505081905550816002600083815260200190815260200160002060006101000a81548173ffffffffffffffffffffffffffffffffffffffff021916908373ffffffffffffffffffffffffffffffffffffffff160217905550808273ffffffffffffffffffffffffffffffffffffffff16600073ffffffffffffffffffffffffffffffffffffffff167fddf252ad1be2c89b69c2b068fc378daa952ba7f163c4a11628f55a4df523b3ef60405160405180910390a4612363600083836001611dec565b5050565b6000604051905090565b600080fd5b600080fd5b60007fffffffff0000000000000000000000000000000000000000000000000000000082169050919050565b6123b08161237b565b81146123bb57600080fd5b50565b6000813590506123cd816123a7565b92915050565b6000602082840312156123e9576123e8612371565b5b60006123f7848285016123be565b91505092915050565b60008115159050919050565b61241581612400565b82525050565b6000602082019050612430600083018461240c565b92915050565b600081519050919050565b600082825260208201905092915050565b60005b83811015612470578082015181840152602081019050612455565b60008484015250505050565b6000601f19601f8301169050919050565b600061249882612436565b6124a28185612441565b93506124b2818560208601612452565b6124bb8161247c565b840191505092915050565b600060208201905081810360008301526124e0818461248d565b905092915050565b6000819050919050565b6124fb816124e8565b811461250657600080fd5b50565b600081359050612518816124f2565b92915050565b60006020828403121561253457612533612371565b5b600061254284828501612509565b91505092915050565b600073ffffffffffffffffffffffffffffffffffffffff82169050919050565b60006125768261254b565b9050919050565b6125868161256b565b82525050565b60006020820190506125a1600083018461257d565b92915050565b6125b08161256b565b81146125bb57600080fd5b50565b6000813590506125cd816125a7565b92915050565b600080604083850312156125ea576125e9612371565b5b60006125f8858286016125be565b925050602061260985828601612509565b9150509250929050565b60008060006060848603121561262c5761262b612371565b5b600061263a868287016125be565b935050602061264b868287016125be565b925050604061265c86828701612509565b9150509250925092565b60006020828403121561267c5761267b612371565b5b600061268a848285016125be565b91505092915050565b61269c816124e8565b82525050565b60006020820190506126b76000830184612693565b92915050565b6126c681612400565b81146126d157600080fd5b50565b6000813590506126e3816126bd565b92915050565b60008060408385031215612700576126ff612371565b5b600061270e858286016125be565b925050602061271f858286016126d4565b9150509250929050565b600080fd5b600080fd5b7f4e487b7100000000000000000000000000000000000000000000000000000000600052604160045260246000fd5b61276b8261247c565b810181811067ffffffffffffffff8211171561278a57612789612733565b5b80604052505050565b600061279d612367565b90506127a98282612762565b919050565b600067ffffffffffffffff8211156127c9576127c8612733565b5b6127d28261247c565b9050602081019050919050565b82818337600083830152505050565b60006128016127fc846127ae565b612793565b90508281526020810184848401111561281d5761281c61272e565b5b6128288482856127df565b509392505050565b600082601f83011261284557612844612729565b5b81356128558482602086016127ee565b91505092915050565b6000806000806080858703121561287857612877612371565b5b6000612886878288016125be565b9450506020612897878288016125be565b93505060406128a887828801612509565b925050606085013567ffffffffffffffff8111156128c9576128c8612376565b5b6128d587828801612830565b91505092959194509250565b600080604083850312156128f8576128f7612371565b5b6000612906858286016125be565b9250506020612917858286016125be565b9150509250929050565b7f4e487b7100000000000000000000000000000000000000000000000000000000600052602260045260246000fd5b6000600282049050600182168061296857607f821691505b60208210810361297b5761297a612921565b5b50919050565b7f4552433732313a20617070726f76616c20746f2063757272656e74206f776e6560008201527f7200000000000000000000000000000000000000000000000000000000000000602082015250565b60006129dd602183612441565b91506129e882612981565b604082019050919050565b60006020820190508181036000830152612a0c816129d0565b9050919050565b7f4552433732313a20617070726f76652063616c6c6572206973206e6f7420746f60008201527f6b656e206f776e6572206f7220617070726f76656420666f7220616c6c000000602082015250565b6000612a6f603d83612441565b9150612a7a82612a13565b604082019050919050565b60006020820190508181036000830152612a9e81612a62565b9050919050565b7f4552433732313a2063616c6c6572206973206e6f7420746f6b656e206f776e6560008201527f72206f7220617070726f76656400000000000000000000000000000000000000602082015250565b6000612b01602d83612441565b9150612b0c82612aa5565b604082019050919050565b60006020820190508181036000830152612b3081612af4565b9050919050565b600081905092915050565b7f46495253545f574f524400000000000000000000000000000000000000000000600082015250565b6000612b78600a83612b37565b9150612b8382612b42565b600a82019050919050565b6000612b9982612436565b612ba38185612b37565b9350612bb3818560208601612452565b80840191505092915050565b6000612bca82612b6b565b9150612bd68284612b8e565b915081905092915050565b7f4e487b7100000000000000000000000000000000000000000000000000000000600052601260045260246000fd5b6000612c1b826124e8565b9150612c26836124e8565b925082612c3657612c35612be1565b5b828206905092915050565b7f4e487b7100000000000000000000000000000000000000000000000000000000600052603260045260246000fd5b7f434f4c4f52000000000000000000000000000000000000000000000000000000600082015250565b6000612ca6600583612b37565b9150612cb182612c70565b600582019050919050565b6000612cc782612c99565b9150612cd38284612b8e565b915081905092915050565b7f4552433732313a20696e76616c696420746f6b656e2049440000000000000000600082015250565b6000612d14601883612441565b9150612d1f82612cde565b602082019050919050565b60006020820190508181036000830152612d4381612d07565b9050919050565b7f4552433732313a2061646472657373207a65726f206973206e6f74206120766160008201527f6c6964206f776e65720000000000000000000000000000000000000000000000602082015250565b6000612da6602983612441565b9150612db182612d4a565b604082019050919050565b60006020820190508181036000830152612dd581612d99565b9050919050565b7f5345434f4e445f574f5244000000000000000000000000000000000000000000600082015250565b6000612e12600b83612b37565b9150612e1d82612ddc565b600b82019050919050565b6000612e3382612e05565b9150612e3f8284612b8e565b915081905092915050565b7f54484952445f574f524400000000000000000000000000000000000000000000600082015250565b6000612e80600a83612b37565b9150612e8b82612e4a565b600a82019050919050565b6000612ea182612e73565b9150612ead8284612b8e565b915081905092915050565b6000612ec48285612b8e565b9150612ed08284612b8e565b91508190509392505050565b6000612ee88286612b8e565b9150612ef48285612b8e565b9150612f008284612b8e565b9150819050949350505050565b60008190508160005260206000209050919050565b60008154612f2f81612950565b612f398186612b37565b94506001821660008114612f545760018114612f6957612f9c565b60ff1983168652811515820286019350612f9c565b612f7285612f0d565b60005b83811015612f9457815481890152600182019150602081019050612f75565b838801955050505b50505092915050565b7f3c2f746578743e3c2f7376673e00000000000000000000000000000000000000600082015250565b6000612fdb600d83612b37565b9150612fe682612fa5565b600d82019050919050565b6000612ffd8287612f22565b91506130098286612b8e565b91506130158285612f22565b91506130218284612b8e565b915061302c82612fce565b915081905095945050505050565b7f7b226e616d65223a202200000000000000000000000000000000000000000000600082015250565b6000613070600a83612b37565b915061307b8261303a565b600a82019050919050565b7f222c20226465736372697074696f6e223a20224120686967686c79206163636c60008201527f61696d656420636f6c6c656374696f6e206f6620737175617265732e222c202260208201527f696d616765223a2022646174613a696d6167652f7376672b786d6c3b6261736560408201527f36342c0000000000000000000000000000000000000000000000000000000000606082015250565b600061312e606383612b37565b915061313982613086565b606382019050919050565b7f227d000000000000000000000000000000000000000000000000000000000000600082015250565b600061317a600283612b37565b915061318582613144565b600282019050919050565b600061319b82613063565b91506131a78285612b8e565b91506131b282613121565b91506131be8284612b8e565b91506131c98261316d565b91508190509392505050565b7f646174613a6170706c69636174696f6e2f6a736f6e3b6261736536342c000000600082015250565b600061320b601d83612b37565b9150613216826131d5565b601d82019050919050565b600061322c826131fe565b91506132388284612b8e565b915081905092915050565b6000604082019050613258600083018561257d565b6132656020830184612693565b9392505050565b7f4552433732313a207472616e736665722066726f6d20696e636f72726563742060008201527f6f776e6572000000000000000000000000000000000000000000000000000000602082015250565b60006132c8602583612441565b91506132d38261326c565b604082019050919050565b600060208201905081810360008301526132f7816132bb565b9050919050565b7f4552433732313a207472616e7366657220746f20746865207a65726f2061646460008201527f7265737300000000000000000000000000000000000000000000000000000000602082015250565b600061335a602483612441565b9150613365826132fe565b604082019050919050565b600060208201905081810360008301526133898161334d565b9050919050565b600061339c8284612b8e565b915081905092915050565b7f4552433732313a20617070726f766520746f2063616c6c657200000000000000600082015250565b60006133dd601983612441565b91506133e8826133a7565b602082019050919050565b6000602082019050818103600083015261340c816133d0565b9050919050565b7f4552433732313a207472616e7366657220746f206e6f6e20455243373231526560008201527f63656976657220696d706c656d656e7465720000000000000000000000000000602082015250565b600061346f603283612441565b915061347a82613413565b604082019050919050565b6000602082019050818103600083015261349e81613462565b9050919050565b7f4e487b7100000000000000000000000000000000000000000000000000000000600052601160045260246000fd5b60006134df826124e8565b91506134ea836124e8565b9250828201905080821115613502576135016134a5565b5b92915050565b6000613513826124e8565b915061351e836124e8565b92508261352e5761352d612be1565b5b828204905092915050565b6000613544826124e8565b915061354f836124e8565b925082820261355d816124e8565b91508282048414831517613574576135736134a5565b5b5092915050565b7f45524337323155524953746f726167653a2055524920736574206f66206e6f6e60008201527f6578697374656e7420746f6b656e000000000000000000000000000000000000602082015250565b60006135d7602e83612441565b91506135e28261357b565b604082019050919050565b60006020820190508181036000830152613606816135ca565b9050919050565b60006020601f8301049050919050565b600082821b905092915050565b60006008830261365a7fffffffffffffffffffffffffffffffffffffffffffffffffffffffffffffffff8261361d565b613664868361361d565b95508019841693508086168417925050509392505050565b6000819050919050565b60006136a161369c613697846124e8565b61367c565b6124e8565b9050919050565b6000819050919050565b6136bb83613686565b6136cf6136c7826136a8565b84845461362a565b825550505050565b600090565b6136e46136d7565b6136ef8184846136b2565b505050565b5b81811015613713576137086000826136dc565b6001810190506136f5565b5050565b601f8211156137585761372981612f0d565b6137328461360d565b81016020851015613741578190505b61375561374d8561360d565b8301826136f4565b50505b505050565b600082821c905092915050565b600061377b6000198460080261375d565b1980831691505092915050565b6000613794838361376a565b9150826002028217905092915050565b6137ad82612436565b67ffffffffffffffff8111156137c6576137c5612733565b5b6137d08254612950565b6137db828285613717565b600060209050601f83116001811461380e57600084156137fc578287015190505b6138068582613788565b86555061386e565b601f19841661381c86612f0d565b60005b828110156138445784890151825560018201915060208501945060208101905061381f565b86831015613861578489015161385d601f89168261376a565b8355505b6001600288020188555050505b505050505050565b60006060820190508181036000830152613890818661248d565b905061389f6020830185612693565b6138ac604083018461257d565b949350505050565b600081519050919050565b600082825260208201905092915050565b60006138db826138b4565b6138e581856138bf565b93506138f5818560208601612452565b6138fe8161247c565b840191505092915050565b600060808201905061391e600083018761257d565b61392b602083018661257d565b6139386040830185612693565b818103606083015261394a81846138d0565b905095945050505050565b600081519050613964816123a7565b92915050565b6000602082840312156139805761397f612371565b5b600061398e84828501613955565b91505092915050565b7f4552433732313a206d696e7420746f20746865207a65726f2061646472657373600082015250565b60006139cd602083612441565b91506139d882613997565b602082019050919050565b600060208201905081810360008301526139fc816139c0565b9050919050565b7f4552433732313a20746f6b656e20616c7265616479206d696e74656400000000600082015250565b6000613a39601c83612441565b9150613a4482613a03565b602082019050919050565b60006020820190508181036000830152613a6881613a2c565b905091905056fe416e204e465420772f20494420257320686173206265656e206d696e74656420746f2025734142434445464748494a4b4c4d4e4f505152535455565758595a6162636465666768696a6b6c6d6e6f707172737475767778797a303132333435363738392b2fa26469706673582212204759a46a216d6fb49b13ba09171c4b234d35cf1c04ca7fb1da62b1c6c6da548464736f6c634300081100333c73766720786d6c6e733d27687474703a2f2f7777772e77332e6f72672f323030302f73766727207072657365727665417370656374526174696f3d27784d696e594d696e206d656574272076696577426f783d273020302033353020333530273e3c7374796c653e2e62617365207b2066696c6c3a2077686974653b20666f6e742d66616d696c793a2073657269663b20666f6e742d73697a653a20323470783b207d3c2f7374796c653e3c726563742077696474683d273130302527206865696768743d2731303025272066696c6c3d27272f3e3c7465787420783d273530252720793d273530252720636c6173733d27626173652720646f6d696e616e742d626173656c696e653d276d6964646c652720746578742d616e63686f723d276d6964646c65273e",
  "linkReferences": {},
  "deployedLinkReferences": {}
}